:100000000C948C020C94D5020C94D5020C94D5025D
:100010000C94D5020C94D5020C94D5020C94D50204
:100020000C94D5020C94D5020C945C230C941823E8
:100030000C94D0270C94D5020C94D5020C94D502C4
:100040000C94D5020C94D5020C94D5020C94D502D4
:100050000C94D5020C94AC270C94D5020C94D502C8
:100060000C94D5020C94D5020C94D5020C94D502B4
:100070000C94D5020C94D5020C94D5020C94D502A4
:100080000C94D5020C94D5020C94D5020C94D50294
:100090000C94D5020C94D5020C94D5020C94D50284
:1000A0000C94D5020C94D5020C94D502050109805C
:1000B000A101850319012AB700150126B700950192
:1000C00075108100C0050C0901A101850419012AE0
:1000D000A002150126A002950175108100C005013E
:1000E0000906A1018505050719E029E71500250185
:1000F0009508750181020507190029EF15002501F2
:1001000095F075018102050819012905950575010C
:100110009102950175039101C00660FF0961A1017B
:100120000962150026FF00952075088102096315F4
:100130000026FF00952075089102C005010906A15F
:1001400001050719E029E7150025019508750181CA
:10015000029501750881010507190029FF15002680
:10016000FF00950675088100050819012905950508
:1001700075019102950175039101C0000101010112
:100180000101010101020202020202020202030352
:100190000303030303030404040404040405050522
:1001A00005050606060606070707070708080808E4
:1001B000090909090A0A0A0B0B0B0C0C0C0D0D0D91
:1001C0000E0E0E0F0F0F1010111111121213131427
:1001D00014151516161717181819191A1A1B1B1C9F
:1001E0001D1D1E1E1F2020212222232424252626F9
:1001F000272829292A2B2C2D2D2E2F30313232332E
:100200003435363738393A3B3C3D3E3F4041424336
:100210004445464748494A4C4D4E4F50515354551A
:100220005658595A5B5D5E5F616264656668696BCA
:100230006C6D6F7072737577787A7B7D7E80828348
:100240008587888A8C8E8F91939596989A9C9EA08C
:10025000A2A3A5A7A9ABADAFB1B3B5B7BABCBEC099
:10026000C2C4C6C9CBCDCFD1D4D6D8DBDDDFE2E462
:10027000E7E9EBEEF0F3F5F8FAFDFF29001E001FA9
:10028000002000210022002300240025002B001460
:10029000001A000800150017001C0018000C003997
:1002A0000004001600070009000A000B000D000EF4
:1002B00000E10000001D001B0006001900050011F0
:1002C000001000E000E300E200E400500001512CC7
:1002D00000E60000004C0035004E002A002E002DE4
:1002E000004D002700260000006100600031003052
:1002F000002F005F001300120000005E005D000090
:1003000000280034005C0033000F0000005B005A3E
:10031000005200E500380059003700360000006345
:100320000062005100000000004F00000000003596
:10033000003A003B003C003D003E003F00400041D1
:1003400000C35C0100010001000100010001000187
:10035000000100C25C010001000100010001000178
:10036000000100010001000000C65CC55CC85CC75C
:100370005CCA5CC95C0100010001000100010001D0
:100380000001000100010000000100010047000120
:100390000045004400460043004200000001000107
:1003A0000001000100010001000100010000000146
:1003B0000001000000010001000100010001000037
:1003C00000010001000100C35C0100010001000107
:1003D00000000001000100005C00000000010000BE
:1003E000000000000000000000000000000000000D
:1003F000000000000000007E0F00D4FFFFFFC700D8
:1004000000007800000000000000002A2B280000F7
:1004100000000000000000000000000000002900B3
:100420000000002C1E3420212224342627252E36BD
:100430002D3738271E1F202122232425263333362B
:100440002E37381F0405060708090A0B0C0D0E0F7E
:10045000101112131415161718191A1B1C1D2F3101
:1004600030232D350405060708090A0B0C0D0E0F65
:10047000101112131415161718191A1B1C1D2F31E1
:1004800030354C09025B00030100A0FA09040000AA
:1004900001030101000921110100012240000705AB
:1004A000810308000A090401000203000000092179
:1004B0001101000122220007058203200001070527
:1004C00003032000010904020001030000000921C8
:1004D00011010001226D000705840320000A1201AA
:1004E000100100000008544D60600100010203018A
:1004F000040330000000140373006B0079006C00EB
:1005000069006E00650037003800000006034D00EA
:10051000540000000403090411241FBECFEFDAE0E9
:10052000DEBFCDBF04B603FE29C080919A0590912D
:100530009B05A0919C05B0919D058730904BA740ED
:10054000B04BE1F410929A0510929B0510929C0515
:1005500010929D0514BE84B7877F84BF0FB6F894B0
:10056000A89580916000886180936000109260007F
:100570000FBEE0910E05F0910F05099425E0AAEE5B
:10058000B2E001C01D92AA39B207E1F712E0A0E083
:10059000B1E0EAE4F3E502C005900D92AA3EB1078E
:1005A000D9F70E9437240C943D290C940000E8ED03
:1005B000F0E080818E7F80831092E2001092DA005A
:1005C0001092E100A0EEB0E08C9181608C9380816C
:1005D0008F77808319BCA7EDB0E08C918E7F8C93D0
:1005E00080818F7E808310925A0508952091E400C7
:1005F0003091E50095E6A9012091EC00822F8170F1
:1006000020FF06C08091E80080FF06C080E00895CA
:100610002091E80022FD1AC080918805882389F086
:10062000853089F08091EB0085FD0FC02091E400BA
:100630003091E50042175307F9F29150E1F684E05A
:10064000089582E0089583E0089581E00895EF928F
:10065000FF920F931F93CF937C018B010E94F602B0
:10066000C82F811117C08091E80085FD0BC08091D3
:10067000E8008E778093E8000E94F602882399F3C1
:10068000C82F08C0F70181917F018093F1000150CC
:10069000110949F78C2FCF911F910F91FF90EF9087
:1006A0000895CF93FC0180918805843001F5C091B5
:1006B000E900CF702091EC00922F917020FD90E81E
:1006C000C92B82E08093E9008091E80080FF0CC094
:1006D00050E040E060E270E0CF010E94270380918B
:1006E000E8008E778093E800CF70C093E900CF9147
:1006F00008958091800587FF13C08091E80082FFF4
:1007000006C08091E8008B778093E80004C0809158
:1007100088058111F2CF0895809188058823D9F347
:100720008091E80080FFF8CF8091E8008E77ECCFD1
:10073000982F9093E900242F762F50E0891731F0FD
:100740007091EC002091ED005091F00021FD07C068
:100750009F5F973071F78093E90081E008953091B1
:10076000EB003E7F3093EB003091ED003D7F309306
:10077000ED003091EB0031603093EB007093EC00B2
:100780002093ED005093F0002091EE0027FDE0CF84
:1007900080E00895CF92DF92EF92FF920F931F9324
:1007A000CF93DF93C8EDD0E088818F7E8883E7ED1B
:1007B000F0E080818160808384E082BF81E080936B
:1007C0005A0588818E7F888302EE10E0F80110823E
:1007D0001092DA0081EEC82ED12CF60110828881A9
:1007E0008F77888388818068888388818F7D8883DC
:1007F00019BC1092880510927F0510927E05109208
:100800007D0590EEE92EF12CF70180818B7F8083AE
:1008100088818160888342E060E080E00E949803E4
:10082000F60180818E7F8083F801808181608083E2
:10083000808188608083F70180818E7F80838881BA
:1008400080618883DF91CF911F910F91FF90EF908E
:10085000DF90CF900895FC018091860590918705E7
:1008600086179707A0F06115710529F49091E800AB
:100870009E779093E80090E06115710551F4911115
:1008800008C08091E80082FF34C080E00895BC0178
:10089000F2CF809188058823C1F18530C1F1809124
:1008A000E80083FD30C08091E80082FDEACF8091AE
:1008B000E80080FFE1CF8091F3002091F200382F13
:1008C0006115710519F02830310558F091E0283094
:1008D000310509F090E02091E8002E772093E800A0
:1008E000CBCF81918093F100615071092F5F3F4F11
:1008F000E7CF80918805882341F0853041F08091D1
:10090000E80083FFBECF81E0089582E0089583E090
:100910000895089580915C0508959C014FB7F8945F
:100920008091560590915705A0915805B0915905B1
:100930004FBF821B930B08952FB7F89480915605F3
:1009400090915705A0915805B09159052FBF089572
:10095000209111012223C9F02091240527FF15C001
:10096000E62FE695E695E695EE31D8F4E80FF92FF7
:10097000F11D677021E030E001C0220F6A95EAF7AF
:1009800020958281282322830895FC0132960896BF
:100990002191621303C0DF0111971C92E817F90738
:1009A000B9F70895209111012223C1F02091240567
:1009B00027FF14C0E62FE695E695E695EE31F8F4AC
:1009C000E80FF92FF11D677021E030E001C0220F20
:1009D0006A95EAF78281822B82830895FC01329620
:1009E0002FEF30E04191641751F02F3F19F441117E
:1009F00001C0232F3F5F3630A9F72F3F09F4089538
:100A0000820F911D27FD9A95FC01628308958091C4
:100A100009058111109209050895809108059091AA
:100A20000705892B90910605892B8093EA02909106
:100A300009059923A1F0892B8093EA028091110185
:100A4000882341F18091240587FF24C08EE1ECEEDC
:100A5000F2E090E0815000F591110E940705E091CD
:100A60002605F09127053097E1F080911101882348
:100A700059F08091240587FF07C08091EA02809396
:100A8000EB0285E08093EA020280F381E02D8AEE9A
:100A900092E0099486E0DBCF21912223D9F29F5F77
:100AA000D9CF089529E0929F800D1124982F977037
:100AB00086958695869525E0829FF0011124E7535F
:100AC000FB4F50E040E080E0219130E0092E02C071
:100AD000369527950A94E2F721703327042E01C03A
:100AE000220F0A94EAF7822B4F5F5F4F4530510582
:100AF00059F7089529E0929F800D1124982F97703F
:100B000041E001C0440F9A95EAF78695869586954F
:100B100095E0899FF0011124E753FB4F90E080E0BE
:100B200070E05191DF0111979B01082E02C03695AC
:100B300027950A94E2F7217021952527242325275C
:100B40002C9301968530910561F708958091C80432
:100B500090919704981301C008958F5F8770FACF22
:100B6000882341F08095909108058923809308059A
:100B70000C940D050895882339F090910805982B61
:100B8000909308050C940D0508952091330430913D
:100B900034042817390771F0909334048093330498
:100BA000E0912605F0912705309721F00084F1852A
:100BB000E02D0994089520913104309132042817D2
:100BC000390771F09093320480933104E091260547
:100BD000F0912705309721F00680F781E02D0994E8
:100BE000089510920705109206050E940D0590E0E9
:100BF00080E00E94DB0590E080E00C94C5056093E6
:100C000096057093970580939805909399050C9499
:100C1000F1050F931F936091960570919705809150
:100C20009805909199058B019C0106701127222748
:100C30003327063011052105310529F468601F911D
:100C40000F910C94FF05677FFACF0F931F9341E03C
:100C500050E060E070E004C0440F551F661F771F2E
:100C60008A95D2F7CB01BA016095709580959095E1
:100C7000009196051091970520919805309199055E
:100C800060237123822393231F910F910C94FF05FE
:100C9000909105058095892380930505282F27705D
:100CA00071F4282F082E000C330B9217130639F01D
:100CB0008595859585950E942506109205050895D0
:100CC0000F931F9341E050E060E070E004C0440FD8
:100CD000551F661F771F8A95D2F7809196059091D0
:100CE0009705A0919805B09199058A019B01082B61
:100CF000192B2A2B3B2BC901B8011F910F910C9482
:100D0000FF0560930A0570930B0580930C05909383
:100D10000D050C94F105882379F19CEF980F913A19
:100D200038F4682F8AEE92E00E94A8040C940D0516
:100D300090E2980F983088F4877021E030E0A901A4
:100D400002C0440F551F8A95E2F7CA018095909121
:100D50000805892380930805E9CF9BE5980F933018
:100D600020F490E080E00C94DB05885A873120F471
:100D700090E080E00C94C5050895CF93C82F882398
:100D800009F467C08CEF8C0F813AC0F58091110196
:100D9000882311F18091240587FF1EC0EC2FE69572
:100DA000E695E695F0E0E651FD4F828190E04C2F0C
:100DB000477021E030E002C0220F331F4A95E2F76E
:100DC00082239323892B91F06C2F8AEE92E00E946C
:100DD000A8040E940D050AC0ECEEF2E082EF92E05A
:100DE0002191C21789F38E179F07D1F76C2F8AEED6
:100DF00092E00E94D204CF910C940D0580E28C0FFA
:100E0000883068F4C77021E030E001C0220FCA9535
:100E1000EAF780910805822B80930805ECCFEBE57B
:100E2000EC0FE33040F4F0E0E05EFE4F808190E0B4
:100E3000CF910C94DB05C85AC73158F4EC2FF0E081
:100E4000EE0FFF1FED5DFE4F80819181CF910C94DD
:100E5000C505CF910895E0912605F09127053097BB
:100E600021F00190F081E02D099480E00895FA01CD
:100E7000811101C0FB010994E2E1F3E08183608309
:100E80004283339694E0EF32F907C1F70895FC01ED
:100E9000EE0FFF1FE80FF91FEE5EFC4F61834083EA
:100EA000228308950C943C070C9447070F931F93DB
:100EB00010E0F801EE0FFF1FE353FE4F90819956AB
:100EC00097FD9195000F111FF801E253FE4F00812D
:100ED0000052110B2003F001219FF00D112408E3B3
:100EE00010E0091B110997FD139540039001419FE4
:100EF000300D1124E20FF31F9F01220F331F2E0F1D
:100F00003F1F37FF02C021583F4F220F232F221FC0
:100F1000330B620F1F910F9108950F931F93522F60
:100F200010E0F801EE0FFF1FE253FE4FA081A05228
:100F3000BB0B9D015203F001539FF00D1124000FD4
:100F4000111FD801A353BE4F0C910956110B40033A
:100F50009001419F300D11242E0F3F1F37FF02C01B
:100F6000215C3F4F96E0359527959A95E1F7620F02
:100F70001F910F9108950F931F93522F10E0F801C6
:100F8000EE0FFF1FE253FE4FA081A052BB0B9D014D
:100F90005203F001539FF00D1124000F111FD801CF
:100FA000A353BE4F0C910956110B40039001419F72
:100FB000300D11242E0F3F1F37FF02C021583F4F25
:100FC000220F232F221F330B620F1F910F910895C1
:100FD000EF920F93972F23E0029FB0011124759594
:100FE00067956E0D792F0F91EF900895322F50E095
:100FF000FA01EE0FFF1FE253FE4F9081905297FDD2
:101000009195440F551FFA01E353FE4F2081231B96
:10101000330B290F311D97FD3A95620F0895E42F88
:10102000F0E0EE0FFF1FE253FE4F6081621B089558
:10103000E42FF0E0EE0FFF1FE353FE4F6081621BD1
:101040000895622F0895E42FF0E0EE0FFF1FE353A1
:10105000FE4F408134EE439F412D1124E82FF0E0F4
:1010600050E0445E5F4FDA01A21BB1099D01B7FF5A
:1010700003C031952195310993E0220F331F9A95D2
:10108000E1F7AF01421B530B9A0157FD20E0582FA7
:10109000259F212D1124822F0895E42FF0E0EE0FDB
:1010A000FF1FE353FE4F408134EE439F412D112437
:1010B000E72FF0E050E0445E5F4FDA01A21BB10978
:1010C0009D01B7FF03C031952195310993E0220FAF
:1010D000331F9A95E1F7AF01421B530B9A0157FD5D
:1010E00020E0279F212D1124722F0895FC019B01E0
:1010F000009729F480E077FF2BC080E80895AC01C9
:1011000097FF04C044275527481B590BB901640FAA
:10111000751F37FD10C0241B350BC901A5E0880FD2
:10112000991FAA95E1F70E940B2880E2861BF7FF22
:101130000FC081950895CB0165E0880F991F6A95CE
:10114000E1F7BA01621B730B0E940B2880E6EECF19
:101150000895EF920F93CF93DF93D72FC82FC90134
:101160000E19BA010E947608602F681B7D2F8C2F04
:10117000DF91CF910F91EF9008950F93CF93DF936D
:10118000D72FC82FC901BA010E947608682F600FB7
:101190007D2F8C2FDF91CF910F910895EF920F93B8
:1011A0001F93CF93DF93D62FC72F182FC9010E1986
:1011B000010FBA010E947608081B202F219F212DC4
:1011C0001124822F6D2F7C2FDF91CF911F910F91D2
:1011D000EF900895EF920F931F93CF93DF93D62F45
:1011E000172FC82FC9010E19070FBA010E947608E0
:1011F000702F781B719F712D11246D2F8C2FDF9113
:10120000CF911F910F91EF9008950F931F93CF935C
:10121000DF93D62FC72F182FC901212F201B022F94
:10122000BA010E947608982F990F990F891B800F99
:10123000282F219F212D1124822F6D2F7C2FDF91AC
:10124000CF911F910F9108950F931F93CF93DF9329
:10125000D62F172FC82FC901272F201B022FBA0105
:101260000E947608982F990F990F782F791B700F8D
:10127000719F712D11246D2F8C2FDF91CF911F91B4
:101280000F910895E82F86FDE0952E2F2F7086FD93
:101290002F5FE695E695E695E670F0E0E85EFE4F96
:1012A0009181929F902D212D112492959F702295CE
:1012B000207F922B2081920F87FD919580E8890FE6
:1012C0000895AC018230910508F408959FEF413EE6
:1012D0008EE1580740F49A0195E0369527959A9546
:1012E000E1F798E0920F61E0E62FE90FFF27FF1F7B
:1012F0009F0135952795822F229FF001239FF00DA6
:10130000F00D11244E175F0738F49FEF920F9617D8
:1013100058F78FEF860F08952F3FE9F361E0620FD2
:10132000F6CF0F93CF93DF93D72FC82F47FD41956B
:1013300084E390E0841B910947FD9395889FB00159
:10134000899F700D700D1124229FC001239F900D65
:10135000900D1124860F971F0E946109982F990FF5
:10136000890F682F600F7D2F8C2FDF91CF910F9108
:10137000089530E020E0869F212D969F200D311D9D
:101380001124C9010895AF92BF92CF92DF92FF92CC
:101390000F931F93CF93DF93362F472FE82FF0E063
:1013A000E558FE4F71110DC06491762F862FDF91A5
:1013B000CF911F910F91FF90DF90CF90BF90AF9092
:1013C0000895C72FD0E02491F22E022F10E056E0AE
:1013D000659FC0011124EFEFF0E0BF010E94F727E5
:1013E000832F90E0880F991F35E5369FD001379FF6
:1013F000B00D11248A1B9B0B982F990F980F6F012A
:10140000CC1ADD0AC09ED001C19EB00DD09EB00D99
:1014100011248B2F949FA0011124452F55276F0174
:10142000C41AD50AC09EA001C19E500DD09E500D79
:1014300011245F01A91AB108AC9E6001AD9ED00CC9
:10144000BC9ED00C1124CD2CDD24EC19FD09E09FAD
:10145000E001E19FD00DF09FD00D1124ED2F6230FF
:101460007105A1F048F46115710569F061307105ED
:1014700089F0EB2F852F07C06430710571F088F07B
:1014800066307105B1F76E2F722F91CFE22F2B2F9F
:101490008D2FF9CFE22F252FF6CFEB2F822F2D2F77
:1014A000F2CF2B2F8F2DE52FEECF9F92AF92BF92D1
:1014B000CF92DF92EF92FF920F931F93CF93DF9320
:1014C0006C01C091120183E1C89FC02D112413E16A
:1014D0001C0FB12E103610F03FE5B32E609195052C
:1014E000669566958091890590918A050E94B90953
:1014F000F82E80E48F0D0E94420990E8A92EA80ED4
:101500008F2D0E94420920E8922E980ED0E0CB1534
:1015100080F081E01F3508F080E0DF91CF911F91CE
:101520000F91FF90EF90DF90CF90BF90AF909F9082
:101530000895FE01E557FD4F8081909113018923A5
:10154000A1F0609192057091930580919405EF2C24
:101550000C2F292D4A2DF60109950E94C309462F0B
:10156000282F672FCE010E9454072196D0CF7F925B
:101570008F929F92AF92BF92CF92DF92EF92FF92A3
:101580000F931F93CF93DF935C01C091120183E10E
:10159000C89FC02D112413E11C0FF12E103610F03E
:1015A0003FE5F32E609195056695809189059091B0
:1015B0008A050E94B909782ED0E0CF1590F081E01D
:1015C0001F3508F080E0DF91CF911F910F91FF90C0
:1015D000EF90DF90CF90BF90AF909F908F907F90D3
:1015E0000895FE01E557FD4F8081909113018923F5
:1015F000C9F1CE01880F991F8D589E4FFC01E65A04
:10160000FF4F2081422F4956550B6A01855A9F4F43
:10161000FC018081282F2052330B4901449F900107
:10162000459F300D300D1124889CC001899C900D80
:10163000900D1124820F931F0E946109082F609161
:1016400092057091930580919405E72C9401A60171
:10165000F50109950E94C309462F282F672FCE0157
:101660000E9454072196A9CFCF92DF92EF92FF926A
:101670000F931F93CF93DF937C01C091120183E1FD
:10168000C89FC02D112413E11C0FD12E103610F06D
:101690003FE5D32E609195056695809189059091DF
:1016A0008A050E94B909C82ED0E0CD1568F081E006
:1016B0001F3508F080E0DF91CF911F910F91FF90CF
:1016C000EF90DF90CF900895FE01E557FD4F8081A8
:1016D00090911301892311F1CE01880F991F8D5824
:1016E0009E4FFC01E55AFF4F20812052330B865A52
:1016F0009F4FFC0140814956550B609192057091B6
:101700009305809194050C2DF70109950E94C3095A
:10171000462F282F672FCE010E9454072196C5CF50
:10172000DF92EF92FF920F931F93CF93DF937C0191
:10173000C091120183E1C89FC02D112413E11C0F39
:10174000012F103608F00FE56091950566956695B6
:101750008091890590918A050E94B909D82ED0E020
:10176000C01760F081E01F3508F080E0DF91CF9175
:101770001F910F91FF90EF90DF900895FE01E557C4
:10178000FD4F808190911301892391F06091920522
:1017900070919305809194052D2D4C2FF70109959B
:1017A0000E94C309462F282F672FCE010E9454079D
:1017B0002196D6CF9091240592FF06C0282F28713C
:1017C0002830F9F4877F846093FF06C0282F2871A2
:1017D0002831F1F4877E84612091250520FF06C021
:1017E000382F38713830D9F4877F816021FF06C0E7
:1017F000282F28712831D1F4877E816194FD877E5E
:101800000895282F24712430F9F68B7F8860DCCF6F
:10181000282F2471243101F78B7E8861DDCF382F8A
:101820003171313019F78E7F8860E0CF282F217118
:10183000213121F78E7E8861E1CFCF93DF9300D0F5
:101840000F92CDB7DEB790918805943011F589835A
:101850007B836A839093E9008FEF9091E800815039
:1018600095FD06C095ED9A95F1F700008111F5CF31
:101870008091E80085FF0DC050E040E063E070E03B
:10188000CE0101960E9427038091E8008E77809315
:10189000E8000F900F900F90DF91CF910895209165
:1018A0008805243021F4BC0184E00C941D0C0895BB
:1018B000BC0183E00C941D0CCF93DF93EC0180916D
:1018C00088058430C1F590911101992329F09091F8
:1018D000240560E297FD02C068E081E08093E900A2
:1018E0008FEF9091E800815095FD06C095ED9A9597
:1018F000F1F700008111F5CF8091E80085FF1BC052
:101900008091110170E050E040E0811104C050E08E
:1019100040E068E070E0CE010E9427038091E8007B
:101920008E778093E80080E2FE01ADE5B5E001909E
:101930000D928A95E1F7DF91CF91089589E0E3E078
:10194000F0E080935700E491F0E0CF018670892B9E
:1019500051F180E09FE390930F0580930E0581E0A5
:101960008093E00080E28093D8001092C9008FE15C
:101970009EE40197F1F700C0000087E090EBDC01E6
:1019800080939A0590939B05A0939C05B0939D0529
:1019900088E19CE00FB6F894A895809360000FBE94
:1019A00090936000FFCF80E09EE3E2FDD4CF80E023
:1019B0009CE3E1FDD0CF80E098E3CDCFCF93C82F5B
:1019C0000E94BD06C93349F42FEF87EE93E0215002
:1019D00080409040E1F700C000008C2FCF910C9424
:1019E0008B060F931F93CF93DF93C62FD42F022F15
:1019F000FC0182818823A1F060938F040E949C04E3
:101A00009093300480932F04C77081E001C0880F49
:101A1000CA95EAF7DF91CF911F910F910C94BB0506
:101A200010918F04161335C080912F0490913004CB
:101A30000E948D04883C910560F5C0E2CD0F1D1712
:101A4000B9F080E2810F883040F4177081E001C066
:101A5000880F1A95EAF70E94B005C83048F481E073
:101A60009D2F977001C0880F9A95EAF70E94BB05D9
:101A7000802F0E94DE0CC83098F4D77081E001C03E
:101A8000880FDA95EAF7DF91CF911F910F910C94AF
:101A9000B005C77081E001C0880FCA95EAF7F3CF9F
:101AA000DF91CF911F910F9108956A9A3EB13B7FCC
:101AB0002EB124604FB7F89482E193E0FC0151917C
:101AC000CF0168E02EB9000000C057FF3EB9550FA6
:101AD000000000C000C000C03EB900C06A9591F788
:101AE000F4E08F329F0751F74FBF87EC90E00197EA
:101AF000F1F700C000000895CF9384E090E00E94C9
:101B00009828C82F81E290E00E949828982F8C2F67
:101B1000CF9108950F931F93CF93DF93C42FD0E0FD
:101B2000CC0FDD1F22E1629FC00DD11D112434EBCB
:101B3000839FC00DD11D1124CE0186960E94982846
:101B4000082F10E0102F0027CE0187960E949828BA
:101B50009801282BC901DF91CF911F910F91089512
:101B6000462F843038F47A3028F4693018F4672F1F
:101B70000C948A0D90E080E00895CF93DF930E944B
:101B8000B00DEC0182389105A9F1D8F581339105AA
:101B900009F496C048F58932910509F48AC08A97FC
:101BA00009F495C0C11522E5D20708F0B6C0C115E9
:101BB00031E5D30708F026C1C83ED10508F09CC026
:101BC000C03ED10560F5C83AD10508F087C0C53AD6
:101BD000D10508F0EFC0C130D10509F12097F9F027
:101BE000C430D105E0F440C08533910509F45AC0F2
:101BF000C997C1F680912405837089F0C0EED0E0CA
:101C00000EC0833E910599F170F4803E910501F17B
:101C1000823E910539F68091240582FD21C0CE01D6
:101C2000DF91CF910895863E910561F1873E910540
:101C300071F1843E910509F0B5CF8091250581FFB2
:101C4000EECF80912405C7EED0E084FD0DC0E7CF34
:101C50008091240580FD07C19091250590FFDFCF7D
:101C6000C3EED0E084FFDBCFD0E0C0E0D8CF8091DE
:101C7000240582FDFBC09091250590FDBFCF84FF18
:101C8000CECFF2CF8091240583FDDDCFC8CF8091E8
:101C9000240583FDEEC09091250591FFF0CFC4EEA1
:101CA000D0E0BDCF8091240585FFB9CFC9E2D0E057
:101CB000B6CF8091240585FFB2CFC5E3D0E0AFCF8A
:101CC0008091240586FFABCFCAE2D0E0A8CF8091F7
:101CD000240586FFA4CFC1E3D0E0A1CFCF3BD1053F
:101CE00018F6C85AD0E0CC0FDD1FCD5DDE4F09904D
:101CF000D881C02DD46493CFC11540E5D40708F036
:101D000064C0C11580E4D80708F05CC0CE019A9584
:101D100081159F4108F483CFA7CFC11536E5D307BE
:101D200018F5C11545E5D40708F084C0C11584E550
:101D3000D80708F07AC09C2F969596959E0123703F
:101D40003327C115D34508F462C0C1E0D0E002C01A
:101D5000CC0FDD1F2A95E2F730E2939FC0011124DA
:101D6000C82BD92BDA685BCFC1158AE5D80778F480
:101D7000C11599E5D90708F068C0C11528E5D20753
:101D800008F472CFDC2FCC27C06FD06A48CFCE01C9
:101D900090568115904208F067CF8D2F8F710E9469
:101DA000DA0B90E0982F882788279F719C012C2BB5
:101DB000E90149C0C55AD0E0C05EDE4FC881D0E01D
:101DC000D0642DCFDF70D06A2ACFCE01E4E09695A3
:101DD0008795EA95E1F783702C2F26952695237039
:101DE00040E2249F90011124382B8C2F8370C1E096
:101DF000D0E002C0CC0FDD1F8A95E2F7C22BD32BB7
:101E0000DC680DCFDC2FCC27C16FD06A08CFC1E0D2
:101E1000D0E002C0CC0FDD1F2A95E2F720E2929FAE
:101E2000C0011124C82BD92BEBCFDC2FCC27C46FDA
:101E3000D06AF5CE8C2F0E94DA0BC82FD0E0DC2FB1
:101E4000CC27CC27DF71D062EACE8C2F8F700E9416
:101E5000DA0B34E0D695C7953A95E1F7CF709C2F11
:101E6000EC01D069DCCEC9E3D0E0D9CEC2EED0E03F
:101E7000D6CEC6EED0E0D3CEBF92CF92DF92EF9215
:101E8000FF920F931F93CF93DF938C01C090960521
:101E9000D0909705E0909805F090990580910A05FB
:101EA00090910B05A0910C05B0910D05C82AD92A77
:101EB000EA2AFB2ACFE1D0E0BC2ED701C6010C2EC6
:101EC00004C0B695A795979587950A94D2F780FD9B
:101ED0000EC0219788F7B12C8B2DDF91CF911F91E8
:101EE0000F91FF90EF90DF90CF90BF900895B801D1
:101EF0008C2F0E94BD0D019761F3EECFCF93DF933E
:101F0000EC010E943C0FBE01DF91CF910C94BD0DFE
:101F10000E947E0F292F2F7092959F7092509E30B5
:101F200078F4E92FF0E0E15CF64D0C941F28803F37
:101F300019F020F4883E20F481E00895843FE1F315
:101F400080E00895883EC0F3813FD1F7F5CF822F1E
:101F500086958695869508956F927F928F929F922F
:101F6000AF92BF92CF92DF92EF92FF920F931F93A7
:101F7000CF93DF938BE7C82E82E0D82E9CEEE92E1C
:101F8000F12CE701C45BD10936011BC0F501859036
:101F90009490692DC8010E94B628682DC801019649
:101FA0000E94B62882E0A80EB11C0E5F1F4FC0171A
:101FB000D10761F782E1680E711C6296CE15DF05CC
:101FC00029F08E01025111095301E0CF7E0184EB0B
:101FD000E80EF11C84EBC80ED11C8CEBE81683E0F4
:101FE000F80679F6DF91CF911F910F91FF90EF9056
:101FF000DF90CF90BF90AF909F908F907F906F9029
:102000000895CF93DF93C6EFD2E060E0CE010E9447
:10201000B6282196C11584E0D807B9F7DF91CF9192
:102020000895CF93C82F6FEF811161E282E290E0B3
:102030000E94B6286FEFC11161E083E290E00E9438
:10204000B6286FEFC11161E384E290E0CF910C9468
:10205000B6286CEE7EEF90E080E00E94D42860E02D
:1020600082E090E00E94B62860E083E090E00E9469
:10207000B62810920A0510920B0510920C051092CA
:102080000D0560E084E090E00E94B62860E081E207
:1020900090E00E94B62860E085E090E00E94B628BB
:1020A00060E086E090E00E94B6286FEF87E090E065
:1020B0000E94B62840E050E0BA0188E090E00E941B
:1020C000C82860E08DE090E00E94B62840E050E033
:1020D000BA0188E190E00E94C82860E087E190E0C2
:1020E0000E94B62840E050E0BA018CE190E00E94E6
:1020F000C82860E080E290E00E94B62840E050E00E
:10210000BA018FE090E00E94C82840E050E0BA0198
:1021100083E190E00C94C828109208058091110189
:10212000ECEEF2E0882359F08091240587FF07C088
:102130008EE1DF011D928A95E9F70C94F10586E0A6
:10214000F8CF1F93CF93DF93CDB7DEB7AA970FB623
:10215000F894DEBF0FBECDBF80E895E02091F1007E
:10216000DC012D93CD01B5E088389B07B9F780914C
:102170008105833009F471C0B8F4813009F448C096
:10218000823009F4B2C08091E80083FF3AC18091A7
:102190008005909181059A3008F033C1E92FF0E075
:1021A000E35BF64D0C941F288A3009F48DC08B3008
:1021B00009F470C0893039F780918005813219F7B0
:1021C0008091840590918505009711F00297D9F6CA
:1021D0008091E800877F8093E8008091E80082FF8B
:1021E00037C09091F3008091F200029729F480911A
:1021F000F1008B7F813021F48091F10080935C05A8
:102200008091E8008B778093E8000E947903BBCF30
:1022100080918005813A09F0B6CF8091E800877FF0
:102220008093E8008091840590918505892B61F465
:1022300060E28DE595E070E00E942B048091E8005B
:102240008B778093E8009FCF60E090E080E0F3CF51
:10225000809188058111C1CF96CF80918005813A08
:1022600009F091CF8091840590918505892B09F023
:102270008ACF8091E800877F8093E8008091E80012
:1022800080FFFCCF809111018093F1008091E800E4
:102290008E77B9CF80918005813209F074CF80911B
:1022A000840590918505892B09F06DCF8091E80018
:1022B000877F8093E8000E94790380918205809354
:1022C00011010E948C105FCF80918005813209F04E
:1022D0005ACF8091E800877F8093E8000E947903BD
:1022E0008091830580935B054ECF80918005813A74
:1022F00009F049CF8091E800877F8093E8008091C2
:10230000E80080FFFCCF80915B05BECF803899F05C
:10231000823809F076C0809184058F70873008F08C
:1023200070C08093E9008091EB0085FB882780F9DD
:102330001092E90006C080917D0590917E05911173
:1023400082609091E800977F9093E8008093F1007D
:102350001092F1008091E8008E77C0C1882309F4C3
:10236000ADC1823009F04DC0809182058111B1C1AB
:10237000809184058F702FEF280F263008F041C020
:102380008093E9002091EB0020FFA3C1933031F44A
:102390008091EB0080628093EB009BC19091EB00F9
:1023A00090619093EB0021E030E001C0220F8A950C
:1023B000EAF72093EA001092EA008091EB0088602F
:1023C000EACF81111EC0109182051F778091E30032
:1023D0008078812B8093E3008091E800877F809351
:1023E000E8000E9479038091E80080FFFCCF809193
:1023F000E30080688093E30082E0111183E0809322
:1024000088058091E80083FF0AC08091E800877FFB
:102410008093E8008091EB0080628093EB00AA96A5
:102420000FB6F894DEBF0FBECDBFDF91CF911F91E5
:1024300008958058823028F72091820530918305D5
:102440002C3DE3E03E07A1F583E08A838AE289839D
:102450004FB7F894DE01139620E03EE051E2E32FFF
:10246000F0E050935700E49120FF03C0E295EF7035
:102470003F5FEF708E2F90E0EA30C0F0C7968D93EB
:102480009D932F5F243159F74FBF8091E800877FDC
:102490008093E8006AE270E0CE0101960E942B046E
:1024A0008091E8008B778093E800ABCFC096E7CFB0
:1024B0008091840590918505432F55274330510520
:1024C00009F44AC078F54130510509F485C08BE51F
:1024D00090E0E3E8F4E04230510509F092CF20911A
:1024E000E800277F2093E80020918605309187053A
:1024F0008217930708F49C0140E02115310509F08B
:1025000070C041116EC08091E80082FDC9CF8091FA
:102510008805882329F2853019F28091E80083FF2D
:10252000F2CFBECF4132510509F447C042325105C6
:1025300009F067CF8330910508F063CFFC01EE0FFF
:10254000FF1FE959FE4F0190F081E02D8C599E4FFD
:10255000DC018C9190E01DC0332721303105E9F07A
:102560002115310579F022303105F9F0233031059C
:1025700009F047CFE0EFF4E0E4918E2F90E0E0EF38
:10258000F4E007C0E4E1F5E0E4918E2F90E0E4E1AF
:10259000F5E0009709F435CFA2CFECE0F5E0E49147
:1025A0008E2F90E0ECE0F5E0F4CFE6EFF4E0E4917C
:1025B0008E2F90E0E6EFF4E0ECCF8330910508F049
:1025C00020CF880F991FFC01E359FE4F0190F08145
:1025D000E02D89E090E083CF82E190E0EEEDF4E041
:1025E0007ECF80918805882309F45ACF853009F47D
:1025F00057CF8091E80083FD53CF8091E80082FDA2
:1026000082CF8091E80080FF78CF9091F300809195
:10261000F2002115310519F08830910550F041E0A4
:10262000089709F040E08091E8008E778093E800F9
:1026300064CF44914093F1003196215031090196C5
:10264000E8CF803809F0DDCE8091E800877F809365
:10265000E80080917F058093F1007CCE8111D1CE7E
:1026600010918205123008F0CCCE8091E800877F6F
:102670008093E80010937F050E947903112311F0E5
:1026800084E005C08091E30087FDFACF81E080936C
:10269000880542E061EC81E00E94980342E261EC2F
:1026A00084E00E94980342E261EC82E00E94980379
:1026B00042E260EC83E00E949803A3CE8091820501
:1026C000813009F09ECE81E0933009F080E0809364
:1026D0007E051092E9008091E800877F8093E800F2
:1026E0000E9479038ECE1F93CF93DF93EC01FC0100
:1026F000E557FD4F80816823A1F00E947828182FAC
:102700000E947828612F782F809194050E94C30938
:10271000462F282F672FCE01DF91CF911F910C9468
:102720005407DF91CF911F910895DF92EF92FF92AE
:102730000F931F93CF93DF938C01FC01E557FD4F5F
:102740008081682381F1D0909305D0919405C09148
:102750009205EC2EF12C0E947828282FC7018C546A
:102760009F4F68E671E00E940B288E199F0997FD24
:102770000396959587959595879523706C2F289F3F
:10278000600D11247D2D8D2F0E94C309462F282F07
:10279000672FC801DF91CF911F910F91FF90EF90AC
:1027A000DF900C945407DF91CF911F910F91FF9010
:1027B000EF90DF9008952F923F924F925F926F9229
:1027C0007F928F929F92AF92BF92CF92DF92EF92C1
:1027D000FF920F931F93CF93DF9371E5472E71E024
:1027E000572E30E020E0C0E041E050E0D2018D9172
:1027F0002D01E82FE295EF70F0E061A18F708A0162
:1028000002C0000F111F8A95E2F7C801962F982B7E
:1028100091A392A18095892382A310EA1A95F1F7DA
:102820007A01022E02C0EE0CFF1C0A94E2F7470167
:102830008094909400E115E06AE5C62E61E0D62E02
:10284000F801D0E05F0160817181D6017D906D015A
:10285000872D82958F7090E0DC0190968C9190E0AE
:10286000B72DBF7002C095958795BA95E2F780FDA8
:102870004FC0CB018E299F29918380833296D50149
:102880008D919C916817790709F0D1E0B5E0E432A9
:10289000FB07C1F6F20131978081E82FE295EF70D6
:1028A000F0E0F1A08F70BA0101C0660F8A95EAF7D7
:1028B000962F90959F2191A382A1862B82A3CD2B49
:1028C0002F5F3F4F2930310509F090CFCC2321F104
:1028D00081E080930C030E949C0490930B038093EF
:1028E0000A0380910A0390910B030E948D040697BE
:1028F000B8F0E2E4F5E0D8018D919D918D018193CE
:102900009193B5E004321B07B1F710920C0308C095
:10291000CB0188219921B0CF80910C038111E1CFA7
:10292000C0900D03D0900E03E0900F03F0901003C1
:102930002FB7F8948091560590915705A0915805AE
:10294000B09159052FBF4FB7F894009156051091DB
:10295000570520915805309159054FBF00930D033D
:1029600010930E0320930F033093100340918D05B5
:1029700050918E0560918F05709190054F3FEFEF5C
:102980005E076E077E07E9F08C199D09AE09BF0945
:10299000AA27BB276C017D01C094D094E094F094E9
:1029A000C416D506E606F70608F047C08FEF9FEF7E
:1029B000DC0180938D0590938E05A0938F05B093D5
:1029C000900580919105D82FD37019F0D82FD69506
:1029D000D69590910601913009F442C0992391F166
:1029E000923009F4B0C3933009F4B5C3E0912605E1
:1029F000F0912705309769F00190F081E02D09955D
:102A000081FF07C020E040E068EC83E290E00E9494
:102A100054078C2FDF91CF911F910F91FF90EF9072
:102A2000DF90CF90BF90AF909F908F907F906F90EE
:102A30005F904F903F902F900895840F951FA61F91
:102A4000B71FB7CF109212010093890510938A0522
:102A500020938B0530938C0581E080930601C6CFCF
:102A60009091050111E0D91309C0837020910401F0
:102A700030E011E08217130609F410E01170109392
:102A80001401DB3140F4ED2FF0E0E95AF64D0C94DF
:102A90001F28111102C010E016C00091120183E13D
:102AA000089F002D112423E1F22EF00EEF2CFFE5FC
:102AB000FF1510F49FE5E92E10E00E15B0F011E0BF
:102AC0000EE50F1540F3809112018F5F8093120184
:102AD00011118CCF82E08093060180911401811145
:102AE00085CFD11183CF83E0B8CF20E040E060E014
:102AF000C8010E9454070F5F1F4FDFCF00911201E2
:102B000083E1089F002D112483E1F82EF00EEF2CB5
:102B10001FE51F1510F41FE5E12E609192057091DD
:102B20009305809194050E94C309D62EC72EB82E16
:102B300010E00E1528F011E02EE52F1520F6ABCF92
:102B4000F801E557FD4F808190911301892331F001
:102B50002B2D4D2D6C2DC8010E9454070F5F1F4F68
:102B6000E8CF0091120183E1089F002D1124B3E109
:102B7000FB2EF00EEF2C3FE53F1510F4AFE5EA2EEB
:102B8000C0909305D090940510919205612F7C2DF3
:102B90008D2D0E94C309B62EA72E982E6091950503
:102BA000610F7C2D8D2D0E94C309D62EC72E882E35
:102BB00010E00E1530F011E08EE58F1508F083CF90
:102BC0006ACFF801E557FD4F908180911301892369
:102BD00059F0282D4D2D6C2D90FD03C0292D4B2D26
:102BE0006A2DC8010E9454070F5F1F4FE2CF00916A
:102BF000120183E1089F002D1124F3E1FF2EF00E56
:102C0000DF2C9FE59F1510F4EFE5DE2EC0909305B5
:102C1000B09094052091950570E4E72E1E2D129F2B
:102C2000112D1124E12E10E00D1508F084CFF801CC
:102C3000E557FD4F8081909113018923B9F0F80188
:102C4000EE0FFF1FE253FE4F808182958F706091DF
:102C500092058E9D600D11247C2D8B2D0E94C30941
:102C6000462F282F672FC8010E9454070F5F1F4F60
:102C7000DBCF0091120183E1089F002D112453E165
:102C8000F52EF00EDF2C3FE53F1510F44FE5D42E66
:102C9000C0909305B09094052091950530E4E32E03
:102CA0001E2D129F112D1124E12E10E00D1508F09C
:102CB00042CFF801E557FD4F8081909113018923A0
:102CC000D9F0F801EE0FFF1FE353FE4F6081E69E3F
:102CD000B001112495E0759567959A95E1F780917B
:102CE0009205680F7C2D8B2D0E94C309462F282F3B
:102CF000672FC8010E9454070F5F1F4FD7CF109155
:102D0000120183E1189F102D1124B3E1FB2EF10E67
:102D1000EF2C3FE53F1510F4AFE5EA2ED090920579
:102D200000919305C0909405609195056695669510
:102D300066958091890590918A050E94B9090E9443
:102D40004209805887FD8195880F282F3C2D239FAD
:102D5000212D1124822F6D2D702F0E94C309D62E94
:102D6000C72EB82E012F10E00E1508F024CFF80161
:102D7000E557FD4F808190911301892331F02B2D70
:102D80004D2D6C2DC8010E9454070F5F1F4FECCFD3
:102D90008DE498E00E94900B182F95CE83E298E086
:102DA000F9CF84E299E00E94340BF6CF85E099E0F8
:102DB000FACF8AEE98E00E94B70AEECF8EEC98E048
:102DC000FACF81E298E0E6CF88E198E0E3CF8FE0A8
:102DD00098E0E0CF86EF97E0DDCF88EE97E0EBCF8D
:102DE00081E999E0E0CF8DEB98E0DDCF89EA98E0CA
:102DF000E2CF8BEB97E00E94550ACECF8DE897E0AB
:102E0000FACF86E597E0F7CF11111EC060919505C6
:102E100020E1620F08F46FEF8091890590918A0597
:102E20000E94B9096AE070E00E94F727892B09F037
:102E300032CE0E9478286FE570E00E940B286091E6
:102E400013010E9495133FCE0091120183E1089F68
:102E5000002D1124F3E1DF2ED00E8D2D9FE59D1561
:102E600008F48FE510E0E82EF12C0E151F0534F064
:102E700011E0AEE5AD1508F026CE0DCE6091130140
:102E8000C8010E9495130F5F1F4FEFCF11111EC095
:102E90006091950520E1620F08F46FEF809189053C
:102EA00090918A050E94B90965E070E00E94F727B9
:102EB000892B09F0F0CD0E9478286FE570E00E9420
:102EC0000B28609113010E947313FDCD0091120134
:102ED00083E1089F002D1124E3E1DE2ED00E8D2D1D
:102EE000BFE5BD1508F48FE510E0E82EF12C0E15B6
:102EF0001F0534F011E0EEE5ED1508F0E4CDCBCD83
:102F000060911301C8010E9473130F5F1F4FEFCF31
:102F10000091120183E1089F002D112473E1472ED7
:102F2000400E642CFAE5F41510F46AE5662E1123C0
:102F300061F040E060E080E00E945207E5E3F4E0E9
:102F40008AE5DF011D928A95E9F710E0712C3AE0DD
:102F5000832E912C49E0342E5AEA252E06151705AA
:102F600034F011E0B9E5B41508F0ADCD94CDC80149
:102F7000B4010E940B286B015C013A9CC0013B9C90
:102F8000900D1124FC01EB5CFB4FE60FF71F508006
:102F90008D589E4FFC01E60FF71F80818F3F59F13E
:102FA000E82EF12CF701E557FD4F80819091130138
:102FB000892309F1252D35E5231B08F420E0622D36
:102FC000621B70919305222D352D230F08F42FEFEE
:102FD00030919405822F880F820F8E5F282F239FB8
:102FE000212D1124822F0E94C309462F282F672FDD
:102FF000C7010E945407352D21E0321B08F430E050
:103000003A9CC0013B9C900D11248B5C9B4FC80ED9
:10301000D91ED6013C930F5F1F4FA0CF112371F033
:1030200040E060E080E00E945207E5E3F4E08AE5DA
:10303000DF011D928A95E9F71092110310E000E07C
:1030400066246A9480EDC82ED12C90EC592E2FE284
:10305000A22EB12C7801712CC8018B5C9B4F4C01C6
:10306000809111038729B9F50E947828853595400C
:1030700094F5F4016082F701ED58FE4FE081EF3FD7
:10308000B1F0D701AB5CBB4F2C91F0E0213D60F17A
:10309000205D330B529EC001539E900D1124B5014B
:1030A0000E94F727262F4FEFCF010E9454077394F9
:1030B000F9E0EF0EF11C2AE07212D2CF0F5F1F4F22
:1030C0000930110539F6809111038F5F8D31B0F40D
:1030D00080931103E0CCF701EB5CFB4F80818150C2
:1030E0008E3F48F68083C7CF269DC0011124B601CC
:1030F0000E94F727462F20E060E0D6CF1092110300
:103100004DE754E029E00EE314E03EEF85E394E060
:10311000FA01293039F4DC01AF5ABF4F6C916F3F8F
:1031200009F43C9361916F3F21F4DF0111973C93C7
:10313000608701960817190761F721504950510916
:103140002111E4CFA8CCD0930501837080930401B2
:103150000E94550DC8CC4091890550918A05609117
:103160008B0570918C052FB7F8948091560590913E
:103170005705A0915805B09159052FBF841B950B99
:10318000A60BB70B4097A105B10508F42FCC109200
:1031900006012CCC45E050E06CE170E081E995E05F
:1031A0000C94A62880919105982F969596959F5FEF
:1031B0009F7383709B3148F4990F990F892B8093EB
:1031C0009105109206010C94CA188460F8CF809182
:1031D0009105845080939105982F9C7F21F48370F2
:1031E000886680939105109206010C94CA18E1E953
:1031F000F5E08181885F81830C94CA18E1E9F5E0EC
:103200008181885081830C94CA18E1E9F5E022811C
:1032100030E1230F08F42FEF22830C94CA18E1E960
:10322000F5E0228130E1231B08F420E022830C9496
:10323000CA182091940530E1230F08F42FEF253BA5
:1032400020F4209394050C94CA1884EB8093940581
:10325000FACFE1E9F5E0238130E1231B08F420E017
:1032600023830C94CA18E1E9F5E0248130E1230FAF
:1032700008F42FEF24830C94CA18E1E9F5E02481C7
:1032800030E1231B08F420E024830C94CA184F92E9
:103290005F926F927F928F929F92AF92BF92CF92E6
:1032A000DF92EF92FF920F931F93CF93DF9300D0A3
:1032B00000D00F92CDB7DEB77C01FC0183819481F1
:1032C000892B31F08081918189238F3F09F007C7D5
:1032D0000F900F900F900F900F90DF91CF911F9153
:1032E0000F91FF90EF90DF90CF90BF90AF909F90A5
:1032F0008F907F906F905F904F9008950E943C0F49
:10330000182F682F89819A810E947A0569817A81B4
:10331000812F0E94B00D8C0187E190E00E949828D7
:10332000813059F4F7018281882339F08091290591
:10333000883C18F48E5F80932905809191058C7FDD
:10334000843609F0A4C0F701B1812081BB24BA946E
:10335000BB0E61E06B0FAFEFA20FAA24A394A20EE5
:10336000CB2ED12CA21788F449E04C9DC0014D9D75
:10337000900D11248B5C9B4F8A0F911DFC014081A5
:1033800050E1450F08F44FEF4083422F50E079E0C1
:103390007C9DC0017D9D900D11248B5C9B4F6C0129
:1033A000C40ED51EF6017081F0E23F2F730F08F4B2
:1033B0007FEFF6017083F8E0FA1558F08A0D911D41
:1033C000FC017081F0E13F2F730F08F47FEFFC01E7
:1033D00070836A3020F16B2D70E0A21708F4A9C049
:1033E00029E0269FC001279F900D11248B5C9B4FE5
:1033F000DC01A40FB51F2C9130E1230F08F42FEF4F
:103400002C93F8E0FA1508F442C0FC01EA0DF11D16
:1034100020813DE0230F08F42FEF208338C0862E53
:10342000912CA21798F4F9E0F89DC001F99D900D38
:1034300011248B5C9B4F8A0F911DFC0170816DE004
:10344000D62E3D2D730F08F47FEF7083F9E0F89DC1
:10345000C001F99D900D11248B5C9B4F6C01C40E33
:10346000D51EF601608170E1670F08F46FEF60838D
:10347000F8E0FA1548F08A0D911DFC0160817DE0AD
:10348000670F08F46FEF6083BB1608F4A4CFF70151
:103490009281992309F418C6980122513F452031A1
:1034A000310508F0D6C58FEF93E00E9498280251AD
:1034B00056EFA52E52E0B52E81110ACF01114BC057
:1034C0001C821B82882483944AE0742E85010F5F3E
:1034D0001F4FC5010E94982889831A82882309F406
:1034E000F7CE9FEF980F933008F044C08A8389820B
:1034F00032E0A30EB11CC8010E9498288B83882358
:1035000009F4E6CE8E010F5F1F4FF80120812223C0
:10351000E9F2213009F068C08181F280813061F5E3
:103520000E5F1F4F8F2D0E94BD068F2D0E948B06B0
:103530002AC029E0269FC001279F900D11248B5C93
:103540009B4FA80FB92FB11D2C913DE0230F08F41C
:103550002FEF2C9345CFA114F4E0BF0609F4B8CEA9
:10356000C5010E949828811101C001502FEFA21AB5
:10357000B20AA4CF5801C6CF823041F40E5F1F4F6C
:103580008F2D0E94BD060F5F1F4FBFCF833019F4F0
:103590000E5F1F4FCACF843019F00F5F1F4FF3CF5C
:1035A0000E5F1F4F30E020E0B8016F5F7F4FF801E2
:1035B0004181EF2DE053FF0BCF013A9750F021509E
:1035C000310908F38FE99FE00197F1F700C000008F
:1035D000F6CF729EF001739EF00D11249C012E0F08
:1035E0003F1FF42E8B01E0CFE22FF0E0ED5FFB4FA9
:1035F0009490822F86958695869590E0FC01ED50FB
:10360000FC4FC4902770D12C022E02C0D594C794D1
:103610000A94E2F7E1E0CE22DD24FC01ED51FC4FFB
:10362000E490F12C02C0F594E7942A95E2F7F1E0DA
:10363000EF22FF24C114D10419F081EE0E94BD06CF
:10364000E114F10419F086EE0E94BD06892D0E9456
:10365000DE0CEF2819F086EE0E948B06CD2809F4C7
:1036600092CF81EE63CF81E00E94600603C081E0CB
:103670000E9425060F900F900F900F900F90DF91F2
:10368000CF911F910F91FF90EF90DF90CF90BF905F
:10369000AF909F908F907F906F905F904F900C9421
:1036A000090682E0E1CF053FFCE51F0709F476C07B
:1036B00008F470C027E245EE66EE063F3CE51307CE
:1036C00009F4EAC4992309F41BC510928F0402304F
:1036D0006CE5160708F444C106318CE5180738F08C
:1036E00098012A5F3C452930310508F039C10E9414
:1036F0007C0D909325058093240500319CE51907E6
:1037000009F4FDC008F08EC00830FCE51F0709F47D
:10371000E8C008F05DC004303CE5130709F4D9C0E7
:1037200008F043C002308CE5180709F4CCC0809142
:103730002405826003301C4509F4C8C0609124054B
:103740001091250584E090E00E94B628612F81E267
:1037500090E00E94B6280F900F900F900F900F905E
:10376000DF91CF911F910F91FF90EF90DF90CF905D
:10377000BF90AF909F908F907F906F905F904F9091
:103780000C948C1027E245EE65EE86C426E241EEED
:1037900060EE82C427E245EE64EE7EC426E241EE8E
:1037A00062EE7AC428E241E0EFCF80912405806187
:1037B0000630ECE51E0709F489C080912405886075
:1037C00007301C4508F482C08091240580627EC0C9
:1037D000809124058D7F0C302CE5120709F476C00A
:1037E00070F4809124058C600A306CE5160709F4AA
:1037F0006DC008F47AC0809124058E7F67C08091E7
:103800002405877F0E309CE5190709F45FC080917D
:1038100024058B7F0F301C4508F458C08091240587
:103820008F7E54C00B3FFCE51F0709F456C030F5EE
:1038300003313CE5130709F46AC078F401318CE5E3
:10384000180709F460C002311C4509F077CF0E94C7
:103850008C10809124058F7739C00531ECE51E0767
:1038600009F45DC008F471C08091250581600A3FAC
:103870001C4509F063CF8093250560CF0F3F3CE5E1
:10388000130709F448C070F40D3F8CE5180799F14F
:10389000809125058E7F0E3F1C4568F3809125059C
:1038A0008360E9CF0130EDE51E0709F457C008F445
:1038B00042C060E002301D4509F040CF8EE090E04C
:1038C0000E94B6283BCF8091240581608093240517
:1038D00035CF809124058460F9CF809125058260E1
:1038E000CACF809124058064F1CF0E948C10809112
:1038F00024058068EBCF809125058D7FBCCF80911A
:1039000024058F7DE3CF809124058F7BDFCF8091CD
:103910002405837FDBCF809125058C7FACCF809100
:10392000240582FB992790F921E0922790FB82F9E8
:1039300090FB83F9CBCF80912505982F90959170BE
:103940008E7F892B90FB81F996CF0E948C109091ED
:103950002405892F97FB87F98058B8CF61E0AECF57
:103960008091080506313CE5130709F0D7C38A7A30
:1039700091E009F490E09093900469E2811165E38D
:103980008AEE92E00E94D2040F900F900F900F9059
:103990000F90DF91CF911F910F91FF90EF90DF90EB
:1039A000CF90BF90AF909F908F907F906F905F90DF
:1039B0004F900C940D058091910591E0892780939B
:1039C0009105109206010F900F900F900F900F909D
:1039D000DF91CF911F910F91FF90EF90DF90CF90EB
:1039E000BF90AF909F908F907F906F905F904F901F
:1039F0000C94CA1847EE58E162ED78E10F900F90F1
:103A00000F900F900F90DF91CF911F910F91FF902A
:103A1000EF90DF90CF90BF90AF909F908F907F906E
:103A20006F905F904F900C94370742ED58E167EE2E
:103A300078E1E4CF4EEF58E167EF78E1DFCF47EF71
:103A400058E16EEF78E1DACF4FE059E165E079E1D6
:103A5000D5CF45E059E16FE079E1D0CF49E259E1B6
:103A600069E179E1CBCF49E159E169E279E1C6CF7A
:103A70004DE359E163E379E1C1CF43E359E16DE3FC
:103A800079E1BCCF809191058370846098CF063D29
:103A90006CE5160761F10E3D8CE5180789F00115FC
:103AA0001C4509F045C00E948C10FFEF24E33CE068
:103AB000F15020403040E1F700C000000E949E0C11
:103AC0000F900F900F900F900F90DF91CF911F915B
:103AD0000F91FF90EF90DF90CF90BF90AF909F90AD
:103AE0008F907F906F905F904F900C94291087E19A
:103AF00090E00E94982860E0813009F061E087E161
:103B000090E00F900F900F900F900F90DF91CF915A
:103B10001F910F91FF90EF90DF90CF90BF90AF90EB
:103B20009F908F907F906F905F904F900C94B628ED
:103B3000F701008111819923C9F1C8010E943C0F4E
:103B4000D82E682FC8010E947A05B8018D2D0E94D9
:103B5000BD0D8C01882EF701A580A2943FE0A32221
:103B6000D280D1101092070580910505877079F0F9
:103B7000DD2069F080E2800F883048F082E00E940A
:103B80004806809105058770CC24C3948111C12C0F
:103B9000B12EB2942FE0B222FBE0FB1508F440C036
:103BA000EB2DF0E0EE58F64D0C941F28C8010E9452
:103BB0005205D82ECACF212F2F70A22E107F19F0B8
:103BC000A29490EFA922DD20C9F0AA2069F080E23A
:103BD000800F883010F081100BC080910805A82A52
:103BE000A09208050E940D05802F0E94BD0618C0F6
:103BF00080910705A82AA0920705F4CF802F0E9484
:103C00008B06AA2069F0A094005E083010F08110A5
:103C10003BC080910805A822A09208050E940D05CE
:103C2000EB2DE850FF0B349710F40E942B07CC20AB
:103C300009F44ECB8091050580FD4ACBF701128235
:103C40008595859585950E946006C7010E94471954
:103C5000809105058595859585950F900F900F901E
:103C60000F900F90DF91CF911F910F91FF90EF90E8
:103C7000DF90CF90BF90AF909F908F907F906F908C
:103C80005F904F900C94250680910705A822A09282
:103C90000705C4CF312F3F70932E107F103219F0DB
:103CA000929480EF9822882071F061E0861661F18D
:103CB000DD20B9F1AA2071F1F701858180FF94CF51
:103CC0008F70858327C0DD2091F090910905892DA3
:103CD000892BA11003C00E94BB05A2CFE1E0AE1268
:103CE000FACF891709F49CCF8093090599CFA110C9
:103CF00006C00E940705892D0E94B00591CFF1E012
:103D0000AF1609F48DCFF5CFDD2031F025E02A156F
:103D100008F486CF892DDFCF34E03A1508F480CF40
:103D2000EACFAA2041F3093349F4FFEF27EE33E04D
:103D3000F15020403040E1F700C00000802F0E9489
:103D40008B066ECF812F86958695837061F08130CA
:103D500009F066CFC8019370D11002C090E080E0F6
:103D60000E94C5055DCFC8019370D11002C090E0DC
:103D700080E00E94DB0554CF812F837009F066C07C
:103D8000D1104ECF802F829586958770880F880F2F
:103D9000602F6F70462E512C712C612C082E04C0A0
:103DA000440C551C661C771C0A94D2F740E050E086
:103DB000BA0104FF0FC04FE050E060E070E004C0C3
:103DC000440F551F661F771F8A95D2F7409550956F
:103DD00060957095812F869586958370823019F154
:103DE000D8F400910A0510910B0520910C05309133
:103DF0000D05813069F04429552966297729CB01C1
:103E0000BA0160237123822393230E94810608CF85
:103E1000402A512A622A732ACB01BA0164297529E2
:103E200086299729F2CF44295529662977290091B7
:103E30000A0510910B0520910C0530910D05CB0161
:103E4000BA016027712782279327DFCF8695DD206F
:103E500011F0812F8170882309F4E2CE802F8295A2
:103E600086958770880F880F602F6F70462E512CB3
:103E7000712C612C082E04C0440C551C661C771C48
:103E80000A94D2F740E050E0BA0104FF0FC04FE0BF
:103E900050E060E070E004C0440F551F661F771FBC
:103EA0008A95D2F74095509560957095812F8695AB
:103EB00086958370823019F1D8F40091960510919F
:103EC00097052091980530919905813069F0442932
:103ED000552966297729CB01BA01602371238223F2
:103EE00093230E94FF059CCE402A512A622A732AFE
:103EF000CB01BA016429752986299729F2CF442973
:103F000055296629772900919605109197052091EA
:103F1000980530919905CB01BA0160277127822756
:103F20009327DFCF1F70DD2029F0812F0E946006CC
:103F3000802FD1CE802F0E94B005812F0E942506B0
:103F40006FCE802F62EF861609F450C0681578F0A6
:103F500090EF891619F1E1EF8E1609F43FC0DD20CC
:103F600009F467C0A11040CE812F8F713CC0F3EFE0
:103F70008F1609F440C024EF8212F1CFDD2009F43E
:103F80004DC01F71812F0E946006E8E01E9FC00196
:103F90001124836080930505812F25C0DD20C9F0A1
:103FA00034E03A1508F43CCE1F7161E070E080E027
:103FB00090E004C0660F771F881F991F1A95D2F7EB
:103FC00000919605109197052091980530919905DB
:103FD000A4CF65E06A1508F423CEE6CF812F8F7158
:103FE000DD2009F4ABCF0E9460061ACE812F8F71BD
:103FF000DD20C9F3A3CF60E070E0CB01DD2009F440
:1040000070CF1F7161E070E080E090E004C0660F47
:10401000771F881F991F1A95D2F763CF81E00E94FE
:104020004806F1E0FA1508F0FBCD82E00E94480650
:10403000F7CDAA2059F0893309F080CE2FEF37EE63
:1040400063E0215030406040E1F776CE812F8F71E0
:1040500075CF0031FFE51F0709F405CB01312FE5CE
:10406000120709F41ECB033F2CE5120709F48ECB8F
:1040700008F019CB083D6CE5160709F483CB093D20
:104080008CE5180709F48ECB073DECE51E0709F017
:1040900019CB26E241EE61EEC7010F900F900F9011
:1040A0000F900F90DF91CF911F910F91FF90EF90A4
:1040B000DF90CF90BF90AF909F908F907F906F9048
:1040C0005F904F900C94F10C00313FE5130709F419
:1040D000CECA01316FE5160731F682E0C9CA85E024
:1040E000DE01119601900D928A95E1F7F701228188
:1040F00089819A81211102C90E945205182F06C98F
:1041000006311C4509F014CD8091900469E28111BB
:1041100065E38AEE92E00E94A80436CC8272F80130
:10412000E25CFC45E431F10508F0B1CCE258F64D13
:104130000C941F281F93CF93DF9380919604807F68
:10414000A9F480919304882389F08091C804D091C8
:1041500097046091910470919204A0919404B0919D
:104160009504C62FC72316E0D81304C0DF91CF9162
:104170001F91089590E0109711F0CF3F19F4019628
:104180008770F2CF189F9001199F300D1124F9010B
:10419000E856FB4F41814713F2CF40814613EFCFE2
:1041A00042814111ECCF438154814A1B5B0B483C57
:1041B000510528F7809196048F7080618093960452
:1041C000F901E356FB4F80818F708061808381E924
:1041D00094E00E944719DF91CF911F910C94A6059E
:1041E000AF92BF92CF92DF92EF92FF920F931F9305
:1041F000CF93DF93CDB7DEB761970FB6F894DEBFEC
:104200000FBECDBF8C0185E0F801DE011D96019047
:104210000D928A95E1F7F80180819181E28021E990
:10422000A22E24E0B22E6091940470919504611541
:10423000710509F43EC13091910440919204232FFD
:1042400024232F3F09F435C1C380D480F090930418
:10425000F601E61BF70BFF2009F4FBC02091960442
:10426000522F507FE83CF10508F0BBC0511178C0D7
:10427000FE2C491321C038131FC0E1101DC02F7040
:10428000206120939604C5010E94471980919604ED
:10429000F80185838F2D61960FB6F894DEBF0FBEAF
:1042A000CDBFDF91CF911F910F91FF90EF90DF90E5
:1042B000CF90BF90AF900895CD2829F0282F2923C3
:1042C0002F3F09F014C120E0F22FF170DF2E20FF04
:1042D0003DC02091C8044091970456E0241315C0B6
:1042E0008D879E878D859E850E947E0F292F229522
:1042F0002F702230F8F0243020F59F70F9F0F8018B
:104300009581907FD9F4D12C1FC030E0529FF001ED
:10431000539FF00D1124E856FB4F6181961306C0A0
:104320006081861303C06281E61210C02F5F3F4F89
:104330002770D4CF9F7011F0882329F3805E8830D6
:1043400010F3C8010E944719FD2CA4CFEE2009F4F8
:10435000A1CF80919604816080939604F12C9ACF2E
:10436000491312C0381310C0E1100EC0F8012583A4
:10437000C8010E94471986E0F801A1E9B4E0019064
:104380000D928A95E1F786CF8D879E878D859E85D4
:104390000E94880F882309F1EE20F9F0809196049D
:1043A000803270F0209191043091920438872F83ED
:1043B0001986DB86CA868C87CE0107960E9447192C
:1043C00086E0F801A1E9B4E001900D928A95E1F749
:1043D0000E949A20FF24F3945DCFC8010E944719E0
:1043E000F9CF51110AC081E994E00E94471986E093
:1043F000F50111928A95E9F7B1CF49130FC038132F
:104400000DC0E1100BC0F8012583C8010E944719B7
:1044100086E0F50111928A95E9F73CCF8D879E875A
:104420008D859E850E94880F8823B9F2EE20A9F21F
:1044300080919604803220F2209191043091920470
:104440003A8329831B82DD82CC828E83CE01019642
:10445000B5CFE83CF105E0F6FE2CEE2009F4BDCF27
:10446000491316C0381314C08091960480FD83CF81
:10447000982F907F09F47FCFF8018583903F09F44E
:1044800077CF982F907F905F8F70892B858370CF27
:104490008D879E878D859E850E94880F811190CF84
:1044A00080919604816080939604C8010E94471908
:1044B000F1CEEE2009F491CF8D879E878D859E8564
:1044C0000E94880FF82E882309F487CF86E0F80130
:1044D000A1E9B4E001900D928A95E1F780919104F1
:1044E000909192040E947E0F0E949A20D3CE21E0E8
:1044F0002E25EACE1F93CF93DF93CDB7DEB7679714
:104500000FB6F894DEBF0FBECDBF4B8B5C8B6D8BAF
:104510007E8B8F8B1A8A198A85E0FE017396DE01E5
:104520001D9601900D928A95E1F786E0FE013D9679
:10453000DE01179601900D928A95E1F7CE0107965C
:104540000E94F020882389F016E08091C8049091A1
:104550009704891349C067960FB6F894DEBF0FBE63
:10456000CDBFDF91CF911F91089586E0FE01379670
:10457000DE01119601900D928A95E1F78A859B855F
:10458000892B11F38F81988589238F3FE9F2209140
:10459000970430E0C9010196877099274091C804BB
:1045A0004817190671F40E948C101092970410920B
:1045B000C80486E0E1E9F4E0DF011D928A95E9F79D
:1045C000C3CF96E0929FD001939FB00D1124A856BF
:1045D000BB4FFE01319601900D929A95E1F78093C1
:1045E00097040E94A605B0CF819FC0011124885670
:1045F0009B4F0E94F020882309F4ADCF8091C8041E
:1046000090E00196877099278093C8049ECFE1E9D6
:10461000F5E085E380838091150190911601A091CA
:10462000170181839283A3838FE784830C94CA1834
:104630001F920F920FB60F9211242F933F934F9317
:104640005F936F937F938F939F93AF93BF93CF931A
:10465000DF93EF93FF93D091E900DF708091EC003E
:10466000C82FC17080FDC0E81092E9008091F00071
:10467000877F8093F00078940E94A1101092E90047
:104680008091F00088608093F000CD2BCF70C093B4
:10469000E900FF91EF91DF91CF91BF91AF919F9191
:1046A0008F917F916F915F914F913F912F910F90DB
:1046B0000FBE0F901F9018951F920F920FB60F927A
:1046C00011242F933F934F935F936F937F938F9317
:1046D0009F93AF93BF93EF93FF938091E10082FF8D
:1046E00009C08091E20082FF05C08091E1008B7FCC
:1046F0008093E1008091DA0080FF24C08091D8008F
:1047000080FF20C08091DA008E7F8093DA00809154
:10471000D90080FF9FC080E189BD82E189BD09B4D5
:1047200000FEFDCF81E08093880580915A058111BC
:1047300009C00E94D7020E94CA038091E2008460EF
:104740008093E2008091E10080FF17C08091E20039
:1047500080FF13C08091E2008E7F8093E200809101
:10476000E20080618093E2008091D80080628093B3
:10477000D80019BC85E0809388058091E10084FF12
:104780002DC08091E20084FF29C080E189BD82E1D3
:1047900089BD89B5982F917080FFFBCF8091D8009B
:1047A0008F7D8093D8008091E1008F7E8093E1001F
:1047B0008091E2008F7E8093E2008091E200816030
:1047C0008093E20080917F05882309F449C084E04A
:1047D000809388050E948C100E942B078091E10035
:1047E00083FF27C08091E20083FF23C08091E10016
:1047F000877F8093E10082E08093880510927F0597
:104800008091E1008E7F8093E1008091E2008E7FB5
:104810008093E2008091E20080618093E20042E0B8
:1048200060E080E00E9498038091F00088608093AF
:10483000F000FF91EF91BF91AF919F918F917F9188
:104840006F915F914F913F912F910F900FBE0F90FD
:104850001F90189519BC1092880510925A0572CFB6
:104860008091E30087FD93E090938805B3CFCDB7A7
:10487000DEB7AA970FB6F894DEBF0FBECDBF84B7E0
:10488000877F84BF0FB6F894A895809160008861F7
:1048900080936000109260000FBE80E890E00FB639
:1048A000F89480936100909361000FBE85B7806893
:1048B00085BF85B7806885BF0E94D7020E94CA0362
:1048C0008091E20084608093E20078948091880572
:1048D0008823A1F01091E9001F709091EC00892FBE
:1048E000817090FD80E8182B1092E9008091E8001B
:1048F00083FD0E94A1101F701093E90082E084BD27
:1049000093E095BD9AEF97BD80936E00A1E5B1E06D
:1049100061E070E08D91E82FE295EF70F0E041A149
:104920008F709B0101C0220F8A95EAF7922F909514
:10493000942391A382A1822B82A321E0AA35B207FE
:1049400049F7AAE5B1E061E070E08D91E82FE295CA
:10495000EF70F0E041A18F709B0101C0220F8A959A
:10496000EAF7922F9095942391A382A1822B82A3A0
:1049700081E0A436B80749F7E0E1F5E084E295E08C
:10498000A2E4B5E0119211921D921D928E179F071D
:10499000C9F70E94DB13EFE3FCE93197F1F700C0A0
:1049A00000000E94DB138091420580FF0BC080E075
:1049B0000E9411106FEF7FEF90E080E00E94D428FA
:1049C0000E949E0C90E080E00E94A0288C3E9E4FAA
:1049D00069F00E94291090E080E00E94A0288C3E9F
:1049E0009E4F21F00E9429100E94072345E050E0CD
:1049F0006CE170E081E995E00E9488288091910542
:104A00008C7F11F40E94072382E290E00E94982894
:104A1000813209F08BC283E290E00E9498288130B5
:104A200009F084C284E290E00E949828813309F062
:104A30007DC290E080E00E94A0288C3E9E4F11F045
:104A40000E94291082E090E00E94982880932D0512
:104A50000E947C0D909325058093240583E090E0CF
:104A60000E949828682F70E090E080E00E94810604
:104A700087E091E09093270580932605BB24BA94A4
:104A8000222423945AE0352E60E1762E74EB472ED3
:104A9000E2E1AE2EF9E05F2EA8E1EA2EF12CB0E4BF
:104AA0006B2E80918805853009F4A4C00E94DB1329
:104AB000EEE2F5E0A2E4B5E010E000E0602F8D91B9
:104AC0009D91219131912817390709F4D1C02827E8
:104AD000392770E0CC24C394D12CA9014C215D214D
:104AE000452B09F4BFC079A36AA39C012C213D2169
:104AF00091E0232B09F490E09BA30E949C04816029
:104B0000782F9DA38CA349A15AA16BA18DA10E94CE
:104B10007A22000F111FF801E25DFA4F8081918126
:104B2000C826D926D182C08287E190E00E949828C9
:104B3000813039F500912A0510912B05C8010E949A
:104B40008D04853F914010F4012BD9F48091290503
:104B5000882319F081508093290580912905853695
:104B600018F081508093290580912905873918F024
:104B70008250809329050E949C0490932B0580937A
:104B80002A050E942B0790912C05891721F00E947D
:104B90002B0780932C0580918805843009F081CF04
:104BA000F3E0F093E9008091E80082FF7ACF8091F2
:104BB000E80090E085FF0CC00E94F60230E2C32EB0
:104BC000D12C8E010F5F1F4F882309F471C091E033
:104BD0008091E8008B778093E800992309F461CFF6
:104BE000E981E150E33108F0B3C0F0E0EE56F64D54
:104BF0000C941F2880918805843009F110922805B3
:104C00000FB6F894A895E09260000FBE6092600025
:104C100083B7817F846083BF83B7816083BF7894CB
:104C2000889583B78E7F83BF0FB6F894A89580913F
:104C30006000886180936000109260000FBE8091D8
:104C40007E05882309F42DCF0E94DB13E2E4F5E012
:104C500081919191892B09F055C125E0E635F20744
:104C6000B9F71FCF7F5FCC0CDD1C793009F035CF51
:104C70000F5F1F4F0A30110509F020CFBEA2BFA25F
:104C800018A60E949C048160782F9AA789A74EA13C
:104C90005FA168A58AA50E947A2246CF8091F10083
:104CA000F80181938F01F1E0CF1AD10809F48FCF79
:104CB0008091E80085FDF2CF8091E8008B778093AA
:104CC000E8000E94F602882399F381CF1A825B8262
:104CD000CE0101960E945103E4CE8A81823009F40C
:104CE00032C18330A1F0813099F52FB7F8946091EB
:104CF00056057091570580915805909159052FBF21
:104D00000E9425286B837C838D839E83E1CFDE0107
:104D10001196E2E4F5E080819181329612969C939F
:104D2000129713968C931397129625E0E635F207A7
:104D300091F7CECF8A81823059F46B817C818D814D
:104D40009E810E94252885E290E00E94B628C0CF6F
:104D5000B982BECF4C816B818A810E948A0D9827CF
:104D6000892798279E838D83B3CF0D811E811027BD
:104D7000012710278A81CB80CA9C60011124849D61
:104D8000C00CD11C11248C8190E0880F991FC80E93
:104D9000D91E612FC60186960E94B628602FC601D3
:104DA0008796D3CF0E94AC0F93CF7A8291CF2A827D
:104DB0003B828ECFCA80DB80DC24CD24DC248E01B4
:104DC0000F5F1F4F8C80800E912E911CC6018A5060
:104DD0009D4F8016910609F47BCFEAE0CE16E1E004
:104DE000DE0650F40E949828F8018483FFEFCF1A62
:104DF000DF0A0F5F1F4FEACFF8011482F7CF0A8155
:104E00001B81102701271027CE0101964C01CC8071
:104E1000C00ED12ED11CC8018A509D4FC016D1069C
:104E200009F456CF0A30E1E01E0720F4F401648152
:104E30000E94B628FFEF8F1A9F0A0F5F1F4FEBCF1C
:104E40000E94011045CF24E02A8342CFCA80DB8034
:104E5000DC24CD24DC248E010F5F1F4F8C80800E5C
:104E6000912E911CC60186968016910609F430CFCA
:104E7000E0EDCE16E2E0DE0650F40E949828F8013C
:104E80008483FFEFCF1ADF0A0F5F1F4FEBCFF801CC
:104E90001482F7CF0A811B81102701271027CE012A
:104EA00001964C01CC80C00ED12ED11CC801869633
:104EB0000C151D0509F40CCF003DE2E01E0720F49F
:104EC000F40164810E94B628FFEF8F1A9F0A0F5FDA
:104ED0001F4FECCF80E00E9411106FEF7FEF90E04A
:104EE00080E00E94D428F4CECE0101960E945103A6
:104EF0002FEF81EE94E0215080409040E1F700C018
:104F000000005ECD79BCA9BC09B400FEFDCF809144
:104F1000D8008F7D8093D8008091E00082608093DC
:104F2000E0008091E00081FDFCCFBBCD60E085E238
:104F300090E00E94B6280E94AC0F0E94011081E010
:104F40000E94111076CD85E290E00E9498281B8285
:104F50001C821D828E83BCCE78941F921FB61F9236
:104F600011248F939F93AF93BF9380915605909197
:104F70005705A0915805B09159050196A11DB11D85
:104F80008093560590935705A0935805B093590503
:104F9000BF91AF919F918F911F901FBE1F90189549
:104FA0001F921FB61F9211248F939F93AF93BF93AD
:104FB00080912805811113C0809156059091570565
:104FC000A0915805B09159054196A11DB11D80933E
:104FD000560590935705A0935805B0935905BF9176
:104FE000AF919F918F911F901FBE1F901895AA1B84
:104FF000BB1B51E107C0AA1FBB1FA617B70710F0C4
:10500000A61BB70B881F991F5A95A9F780959095F5
:10501000BC01CD01089597FB072E16F4009407D02C
:1050200077FD09D00E94F72707FC05D03EF4909544
:1050300081959F4F0895709561957F4F0895EE0F6C
:10504000FF1F0590F491E02D0994692796276927A1
:1050500078278727782708958F929F92AF92BF92E3
:10506000CF92DF92EF92FF92CF93DF93EC016881B2
:1050700079818A819B81611571058105910521F4F2
:1050800064E279ED8BE597E02DE133EF41E050E00C
:105090000E94DA2849015A019B01AC01A7EAB1E458
:1050A0000E94F9286B017C01ACEEB4EFA5019401DC
:1050B0000E940729DC01CB018C0D9D1DAE1DBF1D7B
:1050C000B7FF03C00197A109B04888839983AA83D9
:1050D000BB839F77DF91CF91FF90EF90DF90CF90D0
:1050E000BF90AF909F908F9008950E942C280895B4
:1050F00080E091E00E942C280895B0E0A0E0809329
:10510000000190930101A0930201B093030108955F
:10511000DC01CB01FC01F999FECF06C0F2BDE1BD77
:10512000F89A319600B40D9241505040B8F7089566
:10513000F999FECF92BD81BDF89A992780B508955F
:10514000A8E1B0E042E050E00C948A28DC01A40F12
:10515000B51F4150504048F0CB01840F951F2E9150
:105160000E94B72841505040D0F70895262FF99952
:10517000FECF92BD81BDF89A019700B4021639F0B6
:105180001FBA20BD0FB6F894FA9AF99A0FBE089587
:105190000396272F0E94B7280E94B628252F0E9429
:1051A000B728242F0C94B7280196272F0E94B728E0
:1051B0000C94B628052E97FB1EF400940E94F1284B
:1051C00057FD07D00E940C2907FC03D04EF40C9425
:1051D000F12850954095309521953F4F4F4F5F4FA7
:1051E000089590958095709561957F4F8F4F9F4F53
:1051F00008950E942E29A59F900DB49F900DA49F05
:10520000800D911D11240895B7FF0C94F9280E9478
:10521000F928821B930B0895A1E21A2EAA1BBB1B2F
:10522000FD010DC0AA1FBB1FEE1FFF1FA217B30772
:10523000E407F50720F0A21BB30BE40BF50B661F88
:10524000771F881F991F1A9469F76095709580954C
:1052500090959B01AC01BD01CF010895A29FB001C3
:10526000B39FC001A39F700D811D1124911DB29F9A
:10527000700D811D1124911D0895F894FFCF970F93
:10528000970FA00FA00FA20FA00FA00FA00F970FB6
:10529000970FA70FA00FA00FA70F8611AE11011235
:1052A000AE110112E1111912011221132E13491529
:1052B0007E15B115F71539167F16C816CE16D116FC
:1052C000D616D916DE16E116E416E716EA16ED161E
:1052D000F016F316F616F916FE1601170417461700
:1052E00088170E18DB1DDB1D4A1E4A1EA21E101E4B
:1052F000101E101EBC1E921FA11FA11FDB1CFA1C3A
:10530000151D1A1D1F1D241D291D2E1D331D381D81
:105310003D1D421D681968196819681968196819CE
:105320006819681966266D269A26AA26B526D226F9
:10533000A826A826A8266A277427D526D726DA26DF
:0A534000FF262027232726274A27EF
:10534A0001000000FFFF038A045C0C8904580C4F1B
:10535A000C0100FF0000FFB4003131295A1B750A05
:10536A00818283E200E900EA00B500B600B700CD09
:10537A00008301CC008A01920194012102230224B4
:10538A00022502260227022A02B300B4006F007027
:10539A00009091929395949697343031323337F640
:1053AA00F5F4F1F040226D3B011901AC009504AE11
:1053BA0004CE04000102030405060708090A0B0CBF
:1053CA000D0E0F101112131415161718191A1B1C8B
:1053DA001D1E1FFF202122232425262728292A2BA8
:1053EA002C2D2E2FFF3031320033343536373839F1
:1053FA003A003B3C3DFF3E3F404142434445FF4665
:10540A004748494A4B4C4D4E000000000001010D2F
:10541A00011901260132013F014B01580164017152
:10542A00017D018A019601A701BB01C701D301E0F1
:10543A0001031010101C102910351042104E105B79
:10544A00106710741080108D109910AA10C710D30D
:10545A0010E010052012201E202B20372044205057
:10546A00205D206920762082208F20A520C720D3A6
:10547A0020E02008311831243131313D314A31568A
:10548A003163316F317C3188319B31BB34C731D3C1
:10549A0031E031023C1C3C1F3C503C783C8A3C9A2F
:1054AA003CAA3FB73FC33FD33CE03C1C0138015400
:1054BA00016E0186019E01BA01E001E03FBA3F9EFA
:1054CA003F863F6E00543F383F1C3F0404040404E7
:1054DA000404040404040404040404040404040482
:1054EA000404040404040404040404040404040472
:1054FA000404040104040404040404040404040465
:10550A00040404010404040404010404040401015D
:10551A000104040404010101040402020202020259
:0A552A000202020202020202020263
:00000001FF
